{
  "_format": "hh-sol-artifact-1",
  "contractName": "Merchant",
  "sourceName": "contracts/Merchant.sol",
  "abi": [
    {
      "inputs": [],
      "stateMutability": "nonpayable",
      "type": "constructor"
    },
    {
      "inputs": [
        {
          "internalType": "address",
          "name": "merchant",
          "type": "address"
        }
      ],
      "name": "getMerchantBalance",
      "outputs": [
        {
          "internalType": "uint256",
          "name": "",
          "type": "uint256"
        }
      ],
      "stateMutability": "view",
      "type": "function"
    },
    {
      "inputs": [
        {
          "internalType": "address",
          "name": "merchant",
          "type": "address"
        }
      ],
      "name": "getMerchantPayments",
      "outputs": [
        {
          "components": [
            {
              "internalType": "address",
              "name": "from",
              "type": "address"
            },
            {
              "internalType": "uint256",
              "name": "amount",
              "type": "uint256"
            },
            {
              "internalType": "string",
              "name": "note",
              "type": "string"
            },
            {
              "internalType": "uint256",
              "name": "timestamp",
              "type": "uint256"
            }
          ],
          "internalType": "struct Merchant.Payment[]",
          "name": "",
          "type": "tuple[]"
        }
      ],
      "stateMutability": "view",
      "type": "function"
    },
    {
      "inputs": [],
      "name": "getTotalContractBalance",
      "outputs": [
        {
          "internalType": "uint256",
          "name": "",
          "type": "uint256"
        }
      ],
      "stateMutability": "view",
      "type": "function"
    },
    {
      "inputs": [
        {
          "internalType": "address",
          "name": "",
          "type": "address"
        }
      ],
      "name": "merchantBalances",
      "outputs": [
        {
          "internalType": "uint256",
          "name": "",
          "type": "uint256"
        }
      ],
      "stateMutability": "view",
      "type": "function"
    },
    {
      "inputs": [
        {
          "internalType": "address",
          "name": "",
          "type": "address"
        },
        {
          "internalType": "uint256",
          "name": "",
          "type": "uint256"
        }
      ],
      "name": "merchantPayments",
      "outputs": [
        {
          "internalType": "address",
          "name": "from",
          "type": "address"
        },
        {
          "internalType": "uint256",
          "name": "amount",
          "type": "uint256"
        },
        {
          "internalType": "string",
          "name": "note",
          "type": "string"
        },
        {
          "internalType": "uint256",
          "name": "timestamp",
          "type": "uint256"
        }
      ],
      "stateMutability": "view",
      "type": "function"
    },
    {
      "inputs": [],
      "name": "owner",
      "outputs": [
        {
          "internalType": "address",
          "name": "",
          "type": "address"
        }
      ],
      "stateMutability": "view",
      "type": "function"
    },
    {
      "inputs": [
        {
          "internalType": "address",
          "name": "merchant",
          "type": "address"
        },
        {
          "internalType": "string",
          "name": "note",
          "type": "string"
        }
      ],
      "name": "pay",
      "outputs": [],
      "stateMutability": "payable",
      "type": "function"
    },
    {
      "inputs": [],
      "name": "withdraw",
      "outputs": [],
      "stateMutability": "nonpayable",
      "type": "function"
    }
  ],
  "bytecode": "0x6080806040523461002857600080546001600160a01b03191633179055610898908161002e8239f35b600080fdfe608060409080825260048036101561001657600080fd5b600091823560e01c9081633ccfd60b146106125750806363c742ad146105da5780637f3f1601146105da5780638da5cb5b146105b257806399e5d73914610523578063a356a128146103bb578063d9e3fd64146103a05763fb4da5b71461007c57600080fd5b8260031936011261039c5761008f6106a1565b9260249081359467ffffffffffffffff808711610398573660238801121561039857868501359181831161038657835191602093601f19996100d8868c601f850116018661075a565b8185523688838301011161038257818a928988930183880137850101523415610340576001600160a01b039182169283156102fe57838952600191828652868a209287519461012686610728565b338652878601903482528987019485526060870195428752805490680100000000000000008210156102eb57906101619185820181556106bc565b9790976102da5751166bffffffffffffffffffffffff60a01b87541617865551818601556002850192519b8c519283116102c85761019f84546106ee565b601f8111610286575b508b9c8c999a9b9c508891601f851160011461021c57509280928192600397969560029c94610211575b50501b9160001990861b1c19161790555b519101558652528320908154923484018094116102005750505580f35b634e487b7160e01b85526011905283fd5b0151925038806101d2565b849a9395969798999a168684528a8420935b81811061027157509160029a99989795939185600398969410610259575b505050811b0190556101e3565b015160001983881b60f8161c1916905538808061024c565b82840151855593860193928b01928b0161022e565b848d52888d20601f850160051c8101918a86106102be575b601f0160051c01905b8181106102b457506101a8565b8d815583016102a7565b909150819061029e565b634e487b7160e01b8c5260418b52898cfd5b634e487b7160e01b8e528d8d528b8efd5b50634e487b7160e01b8e5260418d528b8efd5b855162461bcd60e51b81528089018690526018818901527f496e76616c6964206d65726368616e74206164647265737300000000000000006044820152606490fd5b845162461bcd60e51b8152808801859052601d818801527f416d6f756e74206d7573742062652067726561746572207468616e20300000006044820152606490fd5b8980fd5b634e487b7160e01b8752604186528487fd5b8580fd5b5080fd5b82843461039c578160031936011261039c5751478152602090f35b509034610520576020918260031936011261039c576001600160a01b0392836103e26106a1565b16835260019485825280842093845467ffffffffffffffff811161050d5782919493929795975193610419848360051b018661075a565b8185528385018099875284872087915b8483106104b9575050505050805195828701938388525180945281870190828560051b8901019895925b85841061046057888a0389f35b909192939495968580829b603f198c82030187528a5190868251168152828201518382015261049b8683015160808089850152830190610822565b91606080910151910152990194019401929594939190989698610453565b988387829d9b8d899a9b9c9951906104d082610728565b865416815284860154838201526104e96002870161077c565b8b820152600386015460608201528152019201920191909a989a9796959497610429565b634e487b7160e01b825260418552602482fd5b80fd5b82843461039c578060031936011261039c5761053d6106a1565b6001600160a01b0390811683526001602052818320805491936024359283101561052057509061056c916106bc565b5091825416906105a86001840154936080600361058b6002840161077c565b920154938051968796875260208701528501526080840190610822565b9060608301520390f35b82843461039c578160031936011261039c57905490516001600160a01b039091168152602090f35b82843461039c57602036600319011261039c5760209181906001600160a01b036106026106a1565b1681526002845220549051908152f35b849291503461069d578360031936011261069d573384526002602052828420549182156106635750508280808093338252600260205281868120553382f115610659575080f35b51903d90823e3d90fd5b62461bcd60e51b825260209082015260166024820152754e6f2062616c616e636520746f20776974686472617760501b6044820152606490fd5b8380fd5b600435906001600160a01b03821682036106b757565b600080fd5b80548210156106d85760005260206000209060021b0190600090565b634e487b7160e01b600052603260045260246000fd5b90600182811c9216801561071e575b602083101461070857565b634e487b7160e01b600052602260045260246000fd5b91607f16916106fd565b6080810190811067ffffffffffffffff82111761074457604052565b634e487b7160e01b600052604160045260246000fd5b90601f8019910116810190811067ffffffffffffffff82111761074457604052565b9060405191826000825492610790846106ee565b9081845260019485811690816000146107ff57506001146107bc575b50506107ba9250038361075a565b565b9093915060005260209081600020936000915b8183106107e75750506107ba935082010138806107ac565b855488840185015294850194879450918301916107cf565b9150506107ba94506020925060ff191682840152151560051b82010138806107ac565b919082519283825260005b84811061084e575050826000602080949584010152601f8019910116010190565b60208183018101518483018201520161082d56fea2646970667358221220ebcc7c7709fa060f2327bac0887e26c6fd5b13c57f696cd1aa362b42542f951864736f6c63430008140033",
  "linkReferences": {},
  "deployedLinkReferences": {}
}